:020000040C00EE
:100000000008001001020008B1020008B102000857
:10001000B1020008B1020008B102000800000000AF
:10002000000000000000000000000000B102000815
:10003000B102000800000000B1020008B10200088F
:10004000B1020008B1020008B1020008B1020008C4
:10005000B1020008B1020008B1020008B1020008B4
:10006000B1020008000000000000000000000000D5
:10007000B102000800000000B1020008B10200084F
:10008000B1020008B1020008B1020008B102000884
:10009000B1020008B1020008B1020008B102000874
:1000A000B1020008B1020008B1020008B102000864
:1000B000B1020008B1020008B1020008B102000854
:1000C000B1020008B1020008B1020008B102000844
:1000D000B1020008B1020008B1020008B102000834
:1000E000B1020008B1020008B1020008B102000824
:1000F000B1020008B1020008B1020008B102000814
:10010000B1020008B1020008B1020008B102000803
:10011000B1020008B1020008B1020008B1020008F3
:10012000B1020008F9330008B1020008B10200086A
:10013000B1020008B1020008B1020008B1020008D3
:10014000B1020008B1020008B1020008B1020008C3
:10015000B1020008B1020008B1020008B1020008B3
:10016000000000000000000000000000000000008F
:10017000B1020008B1020008B1020008B102000893
:10018000B1020008B1020008B1020008B102000883
:10019000B1020008B1020008B1020008B102000873
:1001A000B1020008B1020008B1020008B102000863
:1001B000B1020008B1020008B1020008B102000853
:1001C000B1020008B1020008B1020008B102000843
:1001D000B1020008B1020008B102000800000000EE
:1001E000B1020008B1020008B1020008B102000823
:1001F000B102000800000000B10200080000000089
:10020000DFF88CD023488047234C244DAC4209DAD8
:1002100021686268A368043BA2BFC858D050FAE7BF
:100220000C34F3E71E4B1F4CA34208DA19685A68D6
:100230000020043AA4BF8850FBE70833F4E71A48CB
:1002400080471A48804700003060000C0000002002
:10025000040200003462000C0000003000000000C6
:100260003060000C480C001000000000E85B000C3F
:10027000000800104804000004020020648B000005
:100280000000003000000000480C001000000000DA
:1002900000080010B50200084802000878020008B3
:1002A00078020008900200088D4600081935000801
:1002B000FEE7000098B500AF054A4FF00053144622
:1002C0000FCB84E80F0002F0BDFA02F033FC98BDBA
:1002D000C4FF002080B584B000AF2F4BDB6803F46F
:1002E0008033002B3ED02D4BDB6803F00103002B45
:1002F00002D02B4BFB6002E002F012FCF860274BAF
:100300001B6803F00403002B20D0244B9B6803F0F0
:1003100070631B0E0133BB60204B9B6803F4FE43EC
:100320001B0A01337B601D4B9B6803F4FE031B0C0F
:1003300001333B60BB683A6802FB03F3FA68B2FB27
:10034000F3F37A6802FB03F3FB600DE0134B9B6849
:1003500003F07F0301333B60FA683B68B2FBF3F3C1
:10036000FB6001E00E4BFB600B4BDB68DBB2013343
:10037000FA68B2FBF3F3FB60074B1B6903F0010360
:100380000133FA68B2FBF3F3FB60064AFB681360C3
:100390001037BD4680BD00BF0046005010470050DA
:1003A00000366E01C0FF002080B582B000AF7860DB
:1003B0007B68054A934203D14FF4803000F070F916
:1003C0000837BD4680BD00BF0040044080B485B002
:1003D00000AFF8600B467A60FB72FB7A9B08DBB2D9
:1003E0001846FB7A9B08DBB21A46FB68043253F8C6
:1003F0002220FB7A03F00303DB001946F8238B402D
:10040000DB4302EA0301FB68021D43F82210FB688C
:100410005A6FFB7A5B00194603238B40DB431A407B
:10042000FB685A67FB683A4A934203D0FB68394A33
:1004300093420AD1FB681A6EFB7A012101FA03F399
:10044000DB431A40FB681A6642E07B681B78DBB22C
:100450005BB2002B3CDA7B685A68FB7A9A40FB68F7
:100460005A60FB7ADB08DBB21846FB7ADB08DBB2AA
:100470001A46FB68103253F82220FB7A03F0070378
:100480009B00194607238B40DB4302EA0301FB680C
:1004900000F1100243F82210FB7ADB08DBB21846A9
:1004A000FB7ADB08DBB21A46FB68103253F82220D5
:1004B0007B681B7A1946FB7A03F007039B0001FA5D
:1004C00003F342EA0301FB6800F1100243F8221033
:1004D000FB7A9B08DBB21846FB7A9B08DBB21A4614
:1004E000FB68043253F822207B681B781946FB7A9C
:1004F00003F00303DB0001FA03F342EA0301FB68A4
:10050000021D43F822101437BD465DF8047B704786
:10051000008E0248008F024880B400AF034BD3F82E
:10052000C4301846BD465DF8047B7047004000505B
:1005300080B584B000AF7860FFF7CCFE0B4B1B6832
:100540000B4AA2FB03239A0C7B6802FB03F37B603C
:100550000023FB6003E000BFFB680133FB60FA6827
:100560007B689A42F7D31037BD4680BDC0FF00209C
:1005700083DE1B4380B400AF034B5B681846BD4667
:100580005DF8047B704700BF7440005080B483B0B6
:1005900000AF7860034A7B68D3600C37BD465DF8D6
:1005A000047B704774400050B0B584B002AF7860EF
:1005B000002000F0B5F800F077FA7B68DB79002BBB
:1005C0000AD000F0AFFA00BF00F09AFA034683F0B9
:1005D0000103DBB2002BF7D17B685B7A184600F091
:1005E00019F900BFFFF798FF0346002BFAD17B688B
:1005F0001B7A184600F032FA7B681B7C184600F024
:1006000027F97B685B7C184600F04AF97B689B7C85
:10061000184600F031F97B68DB7C184600F054F98D
:100620007B689B79002B0AD000F0B4FA00BF00F081
:10063000D9FA034683F00103DBB2002BF7D17B68C4
:10064000DB78002B09D17B689B7983F00103DBB257
:10065000002B17D000F0EAFA14E000F0D7FA7B681C
:1006600099887B68DA787B685B781D467B681B78A5
:100670001C467B689B780093084611462A46234611
:1006800000F0E4FA7B68DB68B3F5803F03D14FF4F8
:10069000803000F045F8FFF71DFE0837BD46B0BDBD
:1006A00080B485B000AF78607B681B0FFB607B680F
:1006B00023F07043BB60FA6813465B0013449B0051
:1006C0001A46044B1344BA681A601437BD465DF8E5
:1006D000047B70471444005080B485B000AF78604C
:1006E0007B681B0FFB607B6823F07043BB60FA687C
:1006F00013465B0013449B001A46084B13441A68C8
:10070000BB681340002B14BF01230023DBB2184643
:100710001437BD465DF8047B704700BF0C440050A1
:1007200080B483B000AF78600649064BDB6823F4E1
:1007300080327B681343CB600C37BD465DF8047B89
:10074000704700BF0046005080B483B000AF7860AF
:100750000649064B9B6923F480327B6813438B6107
:100760000C37BD465DF8047B704700BF0046005063
:1007700080B483B000AF78600649064B5B6A23F40F
:1007800040327B6813434B620C37BD465DF8047BF7
:10079000704700BF0046005080B483B000AF0346EE
:1007A000FB80FB88002B08D10A4A0A4BDB6823F444
:1007B000807323F00103D36007E0064A054BDB6832
:1007C00043F4807343F00103D3600C37BD465DF8FA
:1007D000047B70471047005080B483B000AF0346DD
:1007E000FB7100BF094BD3F8C43003F00803002BA2
:1007F000F8D10749064BDB6823F04002FB7913432D
:10080000CB600C37BD465DF8047B7047004000505C
:100810000043005080B483B000AF0346FB7100BFBB
:10082000094BD3F8C43003F00803002BF8D1074973
:10083000064BDB6823F08002FB791343CB600C3757
:10084000BD465DF8047B70470040005000430050F7
:1008500080B483B000AF78600649064BDB6823F0B4
:10086000FF027B68013B1343CB600C37BD465DF84C
:10087000047B70470046005080B483B000AF7860BE
:100880000649064B1B6A23F001027B68013B1343B8
:100890000B620C37BD465DF8047B70470046005084
:1008A00080B483B000AF78600649064B1B6923F023
:1008B00001027B68013B13430B610C37BD465DF8B9
:1008C000047B70470046005080B483B000AF78606E
:1008D0000649064B5B6923F001027B68013B134329
:1008E0004B610C37BD465DF8047B704700460050F5
:1008F00080B483B000AF78600649064B9B6923F053
:1009000007027B68013B13438B610C37BD465DF8E2
:10091000047B70470046005080B483B000AF78601D
:100920000649064BDB6923F03F027B68013B13431A
:10093000CB610C37BD465DF8047B70470046005024
:1009400080B483B000AF78600649064B5B6A23F041
:10095000FF027B68013B13434B620C37BD465DF8D9
:10096000047B70470046005080B483B000AF03465C
:10097000FB71044AFB7953600C37BD465DF8047B7C
:10098000704700BF0046005080B400AF054A054BD9
:100990005B6923F4803323F002035361BD465DF8A5
:1009A000047B70471047005080B483B000AF78607C
:1009B0003960284A274B5B6943F00103536100BF4C
:1009C000244B1B6903F00103002BF9D0214A214B72
:1009D0005B6943F0100353611E493B68013B1A02F7
:1009E0007B68013B1B0613434B611A4A194B5B6939
:1009F00043F040035361174A164B5B6923F0100321
:100A00005361144A134B5B6943F48023536100BF65
:100A1000104B1B6903F00403002BF9D00D4A0D4B5A
:100A20005B6923F00103536100BF0A4B1B6903F0AC
:100A30000103002BF9D1074A064B5B6923F0400301
:100A40005361054B0822DA600C37BD465DF8047B24
:100A5000704700BF104700506041005080B582B021
:100A600000AF0346FB710F4A0E4B5B6843F48013E3
:100A70005360FB79012B0ED10A4A0A4B5B6823F4C1
:100A8000801353606420FFF753FD064A054B5B68F3
:100A900043F4002353606420FFF74AFD0837BD4646
:100AA00080BD00BF1047005080B400AF124B1B68E0
:100AB00003F00103002B09D10F4B01225A6000BF44
:100AC0000D4B1B6803F00103002BF9D00B4B1B6887
:100AD00003F40073002B0AD0084B4FF400729A60A5
:100AE00000BF064B1B6803F40073002BF9D1BD4611
:100AF0005DF8047B704700BF004200500044005086
:100B000080B400AF064B1B6803F00803002B0CBF3A
:100B100001230023DBB21846BD465DF8047B704715
:100B20000043005080B500AF4FF40000FFF72EFDEA
:100B3000174A174BDB6923F03003D36100BFFFF77F
:100B400019FD034603F40003002BF8D04FF40030E6
:100B5000FFF71CFD0E4B08225A6000BFFFF70AFD8D
:100B6000034603F40033002BF8D04FF40020FFF7C6
:100B70000DFD074A064BDB6843F00803D36000BF56
:100B8000FFF7F8FC034603F40023002BF8D080BDE8
:100B900000430050B0B500AF0F4A0F4B5B6823F421
:100BA000803353600D4D0D4B5B6823F4702424F0AB
:100BB000300401F0B5FF0246094BA3FB02231B0DD5
:100BC000013B1B0423436B60034A034B5B6823F424
:100BD00000335360B0BD00BF1047005000470050C5
:100BE0006BCA5F6B80B400AF074B1B6803F4607384
:100BF000B3F5607F0CBF01230023DBB21846BD466E
:100C00005DF8047B704700BF1047005080B400AF10
:100C1000054A054B5B6823F4803323F002035360DD
:100C2000BD465DF8047B70471047005080B400AFAC
:100C3000054A054B5B6843F4803343F0020353607D
:100C4000BD465DF8047B70471047005080B586B004
:100C500000AFBA607B600346FB810B467B73FB8968
:100C60001846FFF799FD7B7B012B40F08B80FB89B9
:100C7000002B09D101F054FF0246544BA3FB022381
:100C80009B0C9B057B6102E04FF0C0637B617B693D
:100C90007A6802FB03F2BB68B2FBF3F37B617B690A
:100CA0004B4AA2FB03231B099B0D3B61494A494B5D
:100CB0005B6843F00103536000BF464B1B6803F0C1
:100CC0000103002BF9D0434A424B5B6843F0100309
:100CD000536040493F4B9A683F4B13407A68013A52
:100CE00012021A433B69013B1B041A43BB68013BD8
:100CF0001B0613438B60374A364B5B6843F0400357
:100D00005360344A334B5B6823F010035360314A1D
:100D1000304B5B6843F48023536000BF2D4B1B684E
:100D200003F00403002BF9D02A4A2A4B5B6823F016
:100D30000103536000BF274B1B6803F00103002B26
:100D4000F9D17B69254AA2FB03235B099B0D3B611B
:100D50003A6A3B699A4202D2386900F045F87B69E9
:100D60005B081F4AA2FB03235B099B0D3B613A6AA8
:100D70003B699A4202D2386900F036F8386A00F0CE
:100D800033F81CE01349134B9B6823F07F023B6A46
:100D9000013B13438B6000BF0E4B1B6803F0100335
:100DA000002BF9D00B4A0B4B5B6843F001035360F7
:100DB00000BF084B1B6803F00103002BF9D0094B5F
:100DC0000522DA601837BD4680BD00BF83DE1B43B5
:100DD000ABAAAAAA10470050FF8080F089888888B3
:100DE000B7600BB66041005080B582B000AF78604C
:100DF0000B490B4B9B6823F4FE027B68013B1B04F1
:100E000013438B6000BF064B1B6803F02003002BCD
:100E1000F9D03220FFF78CFB0837BD4680BD00BFFC
:100E20001047005080B483B000AF78607B684FF407
:100E30008072DA600C37BD465DF8047B704700BFF6
:100E400080B582B000AF78607B68104A934203D1CE
:100E50000420FFF725FC16E07B680D4A934203D17E
:100E60000820FFF71DFC0EE07B680A4A934203D17D
:100E70001020FFF715FC06E07B68074A934202D179
:100E80000648FFF70DFC0837BD4680BD00C0004096
:100E900000000140004001400040004801000010F7
:100EA00080B582B000AF78601020FFF75DFD7868F4
:100EB000FFF7C6FF0837BD4680BD00BF80B584B0D0
:100EC00000AF78600B46FB707868FFF7E9FF786841
:100ED000FFF7A8FF7B681B68FB60FB6823F44043B7
:100EE000FB60FB789B03FA681343FB607B68FA683E
:100EF0001A601037BD4680BD80B483B000AF786003
:100F000039603B681A687B685A613B685B79C3F358
:100F10004013DBB21A057B685A603B681B79C3F348
:100F20000303DBB21A467B685A623B685B79C3F302
:100F30000303DBB21A467B681A623B685B79C3F332
:100F40000013DBB21A467B689A613B681B79C3F3D6
:100F50000313DBB21A467B68DA620C37BD465DF8D4
:100F6000047B704780B487B000AF78600B46FB709D
:100F70001346BB70FB780B2B36D801A252F823F036
:100F8000B10F0008B10F0008BB0F0008BB0F00082D
:100F9000E90F0008E90F0008E90F0008E90F000851
:100FA000C50F0008D10F0008DD0F0008DD0F000895
:100FB00003233B6100237B611BE00C233B61022385
:100FC0007B6116E04FF440733B6108237B6110E0C6
:100FD0004FF440633B610A237B610AE04FF44053C6
:100FE0003B610C237B6104E000233B6100237B61B8
:100FF00000BF3B69002B13D07B68D3F8A830FB609F
:101000003B69DB43FA681340FB60BA787B6902FAFC
:1010100003F3FA681343FB607B68FA68C3F8A820FF
:101020001C37BD465DF8047B704700BF80B483B0B9
:1010300000AF78607B684FF48072DA600C37BD4691
:101040005DF8047B704700BF80B483B000AF786068
:101050007B6801221A610C37BD465DF8047B70473E
:1010600080B582B000AF78607B68094A934203D1B3
:101070008020FFF715FB07E07B68064A934203D107
:101080004FF48070FFF70CFB0837BD4680BD00BFF2
:10109000000002400040024080B582B000AF78609E
:1010A0001020FFF761FC7868FFF7DAFF0837BD46CC
:1010B00080BD00BF80B584B000AF78600B46FB7088
:1010C0007868FFF7E9FF7868FFF7B0FF7B681B6877
:1010D000FB60FB6823F44043FB60FB789B03FA68EA
:1010E0001343FB607B68FA681A601037BD4680BD09
:1010F00080B582B000AF786039607868FFF7A4FFF0
:101100003B681A687B685A613B685B7BC3F30013DA
:10111000DBB21A057B685A603B681B7BC3F3030391
:10112000DBB21A467B685A623B681B7BC3F303132E
:10113000DBB21A467B68DA623B685B7BC3F303036E
:10114000DBB21A467B681A623B685A687B689A6110
:101150003B689B6883F014027B689A640837BD463D
:1011600080BD00BF80B485B000AF78600B46FB70D7
:101170001346BB707B685B68BB60BB6823F00303EE
:10118000BB60FB78BA681343BB607B68BA685A607F
:101190007B685B69FB60BB78012B04D1FB6843F47F
:1011A0008063FB6003E0FB6823F48063FB607B6883
:1011B000FA685A611437BD465DF8047B704700BF7A
:1011C00080B485B000AF78600B46FB701346BB70EF
:1011D0007B685B68BB60BB6823F40033BB60BB68A3
:1011E00043F40033BB607B68BA685A607B685B6914
:1011F000FB60BB78002B04D0FB6843F40013FB605A
:1012000003E0FB6823F40013FB60FB78012B04D19F
:10121000FB6843F48003FB6003E0FB6823F4800376
:10122000FB607B68FA685A611437BD465DF8047B41
:10123000704700BF80B489B000AFF8600B467A6099
:10124000FB72FB7A013BFB77FB681B68BB61FB7F92
:101250005B00DBB21033FB75FB7D032202FA03F364
:10126000DB43BA691340BB617B685B781A46FB7D40
:1012700002FA03F3BA691343BB61FB7F1633FB75B4
:10128000FB7D012202FA03F3DB43BA691340BB6121
:101290007B689B781A46FB7D02FA03F3BA69134315
:1012A000BB61FB7F5B00DBB21933FB75FB7D032267
:1012B00002FA03F3DB43BA691340BB617B68DB7856
:1012C0001A46FB7D02FA03F3BA691343BB61FB7F45
:1012D0009B00FB75FB7D0F2202FA03F3DB43BA6927
:1012E0001340BB617B681B781A46FB7D02FA03F34F
:1012F000BA691343BB61FB68BA691A602437BD46FB
:101300005DF8047B704700BF80B483B000AF7860A5
:101310000B467B807A887B685A630C37BD465DF844
:10132000047B704780B483B000AF78600B46FB70DD
:1013300013463B80FB78002B03D13A887B68DA6345
:1013400002E03A887B685A640C37BD465DF8047B3E
:10135000704700BF80B483B000AF786039603B68ED
:101360005A687B681A653B689A687B685A653B686F
:101370001A687B68DA640C37BD465DF8047B7047F9
:1013800080B483B000AF78600B46FB707B685B690C
:1013900023F0C0427B685A617B685A69FB785B071F
:1013A0001A437B685A610C37BD465DF8047B704771
:1013B00080B584B000AFF8600B467A60FB72F868C5
:1013C000FEF7F2FFFB681A68FB7A9B0019460F23B1
:1013D0008B40DB431A407B681B68F97A89008B409D
:1013E0001A43FB681A60FA7A7B685968FB68043212
:1013F00043F822101037BD4680BD00BF80B483B0D3
:1014000000AF78600B46FB701346BB70FA78BB7870
:1014100003F00303D9B27B68083201F0030109012C
:1014200053F8220020F03000014343F822100C371B
:10143000BD465DF8047B704780B483B000AF786030
:101440000B46FB701346BB707B685A6FFB785B00E2
:10145000194603238B40DB431A407B685A677B683D
:101460005A6FBB78F97849008B401A437B685A67FA
:101470000C37BD465DF8047B704700BF80B485B073
:1014800000AF786039603B78C3F30203DBB21A46E1
:10149000BB78C3F30403DBB21B041343FB607B681C
:1014A000FA68C3F8F021FB78C3F30013DBB21A0724
:1014B000FB78C3F38103DBB29B061A43FB78C3F3CB
:1014C0004013DBB25B071343FB607B68D3F8F0216A
:1014D000FB68134343F000427B68C3F8F0211437E4
:1014E000BD465DF8047B704780B483B000AF786080
:1014F0007B68D3F8843043F080727B68C3F8842023
:101500000C37BD465DF8047B704700BF80B483B0E4
:1015100000AF78607B68D3F8843023F080727B68FA
:10152000C3F884200C37BD465DF8047B704700BFCC
:1015300080B500AF0120FFF7B3F880BD80B582B061
:1015400000AF78603960FFF7F3FF3B685A697B684A
:101550001A603B685B6843F400427B68C3F88020F4
:101560003B689A687B68C3F8A0203B68DA687B68B0
:10157000C3F8A4203B681A697B68C3F880223B68E3
:101580001A687B68C3F8B8200837BD4680BD00BF25
:1015900080B485B000AF78607B68D3F8803043F0CA
:1015A00000427B68C3F880200023FB7317E0FB7BBD
:1015B0000F4A52F82330BB60BB68D3F8803003F485
:1015C0004033002B08D000E000BFBB68D3F8803068
:1015D00003F08053002BF7D1FB7B0133FB73FB7BC4
:1015E000032BE4D91437BD465DF8047B704700BF78
:1015F0000047000880B582B000AF786039603B6872
:10160000786859680022002300F028F83B68786861
:1016100059680122002300F021F83B687868996836
:101620000022012300F01AF83B68786899680122CB
:10163000012300F013F83B681A697B68C3F8802027
:101640003B68DA687B68C3F8B8203B68786819683B
:10165000FFF714FF0837BD4680BD00BF80B48DB0D2
:1016600000AFF860B9603B601346FB71FB79002B5B
:1016700013D10823FB624FF4E0637B620023BB625B
:101680001F233B623B7AC3F30403DBB2FB617B7A2B
:10169000C3F30203DBB2FB7613E01823FB624FF0C7
:1016A000E0637B621023BB624FF4F8133B62BB7AAA
:1016B000C3F30403DBB2FB61FB7AC3F30203DBB2C7
:1016C000FB76FB683A68283253F822307B617B6AEC
:1016D000DB437A6913407B61FA7EFB6A02FA03F30B
:1016E0007A6913437B613B6ADB437A6913407B6110
:1016F000BB6AFA6902FA03F37A6913437B61FB68F8
:101700003A682832796943F822103437BD465DF8CB
:10171000047B704780B485B000AF78600B46FB70E7
:101720007B68D3F88030FB60FB6823F00303FB6029
:10173000FB78FA681343FB607B68FA68C3F8802083
:101740001437BD465DF8047B704700BF80B487B096
:1017500000AFF860B9607A607A68BB689A4202D9D3
:10176000BB680133BB60FB68D3F8C0307B617B6929
:1017700023F003037B617A69BB6813437B61FB68D9
:101780007A69C3F8C0201C37BD465DF8047B7047FA
:1017900080B485B000AF78607B68D3F8C030FB6060
:1017A000FB6823F00303FB607B68FA68C3F8C02082
:1017B0001437BD465DF8047B704700BF80B485B028
:1017C00000AF786039600023BB600023FB600BE052
:1017D000134AFB6852F823207B689A4201D1FB68C8
:1017E000BB60FB680133FB60FB68032BF0D93A68F0
:1017F000BB689A4202D23B6801333B607B68D3F8F6
:10180000C0203B680333194601238B401A437B6891
:10181000C3F8C0201437BD465DF8047B704700BF95
:101820000047000880B584B000AF78603960786800
:10183000FFF76CFE7B68D3F88430FB60FB6823F015
:101840000303FB603B681B78C3F38103DBB21A46DA
:10185000FB681343FB603B681B7803F00303DBB2B8
:10186000002B03D0FB6843F00803FB607B68FA6839
:10187000C3F884203B685B6843F0802343F4000393
:101880007A68C2F800313B689B6843F001027B68CC
:10189000C3F804213B681B7803F00303DBB2022B7F
:1018A00007D17B68D3F8043143F480327B68C3F8F6
:1018B00004217868FFF718FE1037BD4680BD00BFD1
:1018C00080B485B000AF78600B46FB707B68D3F8BE
:1018D000C031FB60FB6823F00F03FB60FB78FA6804
:1018E0001343FB607B68FA68C3F8C0211437BD4618
:1018F0005DF8047B704700BF80B489B000AFF8602A
:10190000B9607A607B681B7ABB61FB68D3F888306A
:101910007B61BB68012202FA03F3DB437A6913405F
:101920007B61BB68BA6902FA03F37A6913437B618E
:10193000FB687A69C3F888207B685B7A5BB2002B0E
:1019400029DB0023FB61BB68012B0AD10823FB6163
:10195000FB68D3F8B03023F4F852FB68C3F8B0202A
:101960000CE0BB68002B09D10023FB61FB68D3F8B6
:10197000B03023F01F02FB68C3F8B020FB68D3F837
:10198000B0307A68527A51B2FA6901FA02F21A4317
:10199000FB68C3F8B020FB68D3F8C8207B685B689D
:1019A0001A43FB68C3F8C8207B681968FB68BA68EB
:1019B000803243F822102437BD465DF8047B70471F
:1019C00080B400AFBD465DF8047B704780B483B03F
:1019D00000AF78600B46FB70FB7801229A407B6871
:1019E000DA600C37BD465DF8047B704780B483B085
:1019F00000AF78607B680122DA600C37BD465DF885
:101A0000047B704780B483B000AF78607B680222AB
:101A10001A610C37BD465DF8047B704780B483B013
:101A200000AF78600B467B807A887B685A630C37FE
:101A3000BD465DF8047B704780B483B000AF78602A
:101A40000B467B807A887B68DA630C37BD465DF88D
:101A5000047B704780B483B000AF786039607B68E6
:101A60003A681A610C37BD465DF8047B704700BFC9
:101A700080B483B000AF78600B46FB707B68D3F80E
:101A8000A420FB78012101FA03F31A437B68C3F811
:101A9000A4200C37BD465DF8047B704780B584B048
:101AA00000AF78600023FB737B6893F8263083F0E7
:101AB0000103DBB2002B09D07B6893F82130002BA7
:101AC00004D1786800F008F80346FB73FB7B1846E6
:101AD0001037BD4680BD00BF80B584B000AF7860D0
:101AE0007B681B69184600F0FBFD0346FB737B68AF
:101AF0001B699A687B681B7E10461946FFF766FFD4
:101B00007B685A697B68DB6910461946FFF7F4F970
:101B1000786800F02DF87B6893F82530002B0FD003
:101B20007B685A697B6893F82030104600211A467A
:101B3000FFF718FA7B685B6918460021FFF798FFEA
:101B40007B685B691846FFF75DFF7B68012283F8BD
:101B500026207B6893F82430002B04D07B685B69D7
:101B60001846FFF743FFFB7B18461037BD4680BD84
:101B700080B582B000AF78607B685A697B685B8C07
:101B800010461946FFF74AFF7B685B69184600213B
:101B9000FFF752FF7B681B699A687B68DB68104619
:101BA0001946FFF757FF0837BD4680BD80B483B0A4
:101BB00000AF78600B46FB70FB7801229A407B688F
:101BC000DA600C37BD465DF8047B704780B483B0A3
:101BD00000AF786039607B685A693B685B041A43E0
:101BE0007B685A610C37BD465DF8047B704700BFC7
:101BF00080B483B000AF786039607B683A681A615E
:101C00000C37BD465DF8047B704700BF80B483B0DD
:101C100000AF78600B467B807A887B681A670C3748
:101C2000BD465DF8047B704780B483B000AF786038
:101C30000B46FB707B68D3F8A420FB78012101FAE6
:101C400003F31A437B68C3F8A4200C37BD465DF844
:101C5000047B704780B483B000AF78600B46FB70A4
:101C6000FB7801229A407B68C3F8B0200C37BD4650
:101C70005DF8047B704700BF80B483B000AF78602C
:101C80000549054BDA6C7B681343CB640C37BD46C2
:101C90005DF8047B704700BF0040005080B483B003
:101CA00000AF78600549054BDA6C7B68DB43134075
:101CB000CB640C37BD465DF8047B70470040005094
:101CC00080B483B000AF78600B46FB70FB780122D4
:101CD0009A407B685A600C37BD465DF8047B7047BC
:101CE00080B483B000AF78600B46FB70FB784FF494
:101CF00080329A407B685A600C37BD465DF8047BA1
:101D0000704700BF80B582B000AF78607B681B6809
:101D100093F84430012B06D17B689B681B681846FA
:101D20000021FFF781FF7B681B6893F84530012B8A
:101D300006D17B689B681B6818460A21FFF774FF71
:101D40000837BD4680BD00BF80B582B000AF786067
:101D50007B681B68DB7C012B09D17B689B6D1A6853
:101D60007B689B6D1B7910461946FFF7B9FF7B68AE
:101D70001B68DB7C022B09D17B689B6D1A687B6832
:101D80009B6D1B7910461946FFF79AFF0837BD4631
:101D900080BD00BF80B582B000AF78607B681B68F3
:101DA000DB7C012B09D17B689B6D1A687B689B6D7E
:101DB0001B7910461946FFF783FF7B681B68DB7CA5
:101DC000022B09D17B689B6D1A687B689B6D1B7920
:101DD00010461946FFF784FF0837BD4680BD00BF97
:101DE00080B586B000AF786000237B6100233B6143
:101DF0000023FB737B681B68BB607B6893F89030A3
:101E0000002B40F033817B689B6E184600F03AFC53
:101E10000346FB7300233B6116E07B683A69083296
:101E200053F8223018687B683A69083253F8223038
:101E300019797B683A690E3253F822301A46FEF758
:101E4000C5FA3B6901333B613B69052BE5D9BB68AA
:101E500093F84730012B1AD17B681B6D19687B689A
:101E60001B6D1A797B685B6D084611461A46FEF7B2
:101E7000ADFA7B681B6D19687B681B6D1A797B68EE
:101E80001B689B7C084611461A46FFF7D5FABB68CB
:101E9000DB7C002B0CD07B689B6D19687B689B6D8D
:101EA0001A797B68DB6D084611461A46FEF78EFAF2
:101EB0007868FFF749FF00237B61A4E07B687A69BB
:101EC000023253F822301A687B689B691046194623
:101ED000FFF70EF97B687A69023253F822301A68EC
:101EE0007B68DB6E10461946FFF734FA7B687A6927
:101EF000023253F822301A687B685B6E104601216B
:101F00001A46FFF797F9BB6893F84730012B21D1A8
:101F10007B687A69023253F822301A687B681B6E3C
:101F2000104603211A46FFF785F97B687A69023269
:101F300053F822301968BB685A7CBB6893F8483064
:101F4000002B14BF01230023DBB2084611461A46BA
:101F5000FFF736F97B687A69023253F822301A6843
:101F60007B68D3F89C309BB210461946FFF7CCF93A
:101F70007B687A69023253F822301B6818460021C8
:101F80000022FFF7CFF97B687A69023253F82230DA
:101F90001B68184601210022FFF7C4F97B687A69A3
:101FA000023253F8223019687B681A687B6913443F
:101FB00008331B7908461946FFF7E2F97B687A690E
:101FC000023253F822301B687A687969023152F87C
:101FD00021201268D2F8A810BA6878690A3052F83D
:101FE00020200A43C3F8A8207B6859687B687A6977
:101FF000023253F822301B7908461946FFF7D6FD06
:102000007B6901337B617B69022B7FF657AF786870
:10201000FFF778FE7B685A68BB685B6A1046194612
:10202000FFF7E6FD7B68DB6E1B791A467B68C3F819
:1020300094207B68DB6E5B791A467B68C3F8982036
:102040007B68DB6E1B78C3F38113DBB21A467B68B7
:1020500083F89120FB7B012B06D00023FB737B6868
:10206000012283F8902001E00123FB73FB7B1846DB
:102070001837BD4680BD00BF80B584B000AF786022
:102080000023FB607B681B68BB607B6893F8903023
:10209000012B05D07B6893F89030032B40F03381FF
:1020A0007B680022A3F8AE207B680022A3F8B02052
:1020B0007B680022A3F8B2207B680022A3F8B4203A
:1020C0007B680022A3F8B6207B680022A3F8B82022
:1020D0007B680022A3F8BA207B680022A3F8BC200A
:1020E0007B680022C3F8A4207B680022A3F8C020EC
:1020F0007868FFF74FFE0023FB6026E0BB6893F88B
:102100004730012B13D17B68FA68023253F8223032
:102110001B6818460A21FFF79DFD7B68FA680232AA
:1021200053F822301B6818460B21FFF793FD7B689C
:10213000FA68023253F822301B6818460121012246
:10214000FFF710F8FB680133FB60FB68022BD5D961
:10215000BB6893F84730012B29D17B689B681A68CC
:10216000BB681B7D1946BB681B7D5B000B4310469B
:102170001946FFF72BFD7B68DB681A68BB685B7D3F
:102180001946BB685B7D5B000B4310461946FFF7A1
:102190001DFD7B681B691A68BB689B7D1946BB687F
:1021A0009B7D5B000B4310461946FFF70FFDBB6894
:1021B0001B7C002B75D07B685B691B68184601216E
:1021C0000122FEF7CFFFBB681B7C012B33D17B685C
:1021D0009B6819687B68B3F8C2305B089AB2BB6829
:1021E000B3F8403013449BB208461946FFF70EFD82
:1021F0007B68DB6819687B68B3F8C2305B089AB209
:10220000BB68B3F8403013449BB208461946FFF749
:10221000FDFC7B681B6919687B68B3F8C2305B08FA
:102220009AB2BB68B3F8403013449BB208461946D3
:10223000FFF7ECFC35E07B689B6819687B68D3F896
:1022400094309BB2DBB29AB2BB68B3F8403013440F
:102250009BB208461946FFF7D9FC7B68DB68196812
:102260007B68D3F894309BB2DBB29AB2BB68B3F808
:10227000403013449BB208461946FFF7C7FC7B6801
:102280001B6919687B68D3F894309BB2DBB29AB2B1
:10229000BB68B3F8403013449BB208461946FFF7B9
:1022A000B5FCBB681B6A1846FFF7E6FC7B689B68B9
:1022B0001B68184600210122FEF754FF7B68DB688B
:1022C0001B68184600210122FEF74CFF7B681B6942
:1022D0001B68184600210122FEF744FFBB681B7CE7
:1022E000002B07D07B685B691B6818460021012220
:1022F000FEF738FFBB681B6A1846FFF7CFFC7B6808
:10230000022283F890201037BD4680BD80B400AF14
:10231000044BDB6803F4E0631B0A1846BD465DF816
:10232000047B704700ED00E080B483B000AF03464B
:10233000FB7197F90730002B0BDB084997F9073041
:102340005B09FA7902F01F02012000FA02F241F85B
:1023500023200C37BD465DF8047B704700E100E0A8
:1023600080B483B000AF0346FB7197F90730002BB0
:102370000CDB094997F907305B09FA7902F01F0273
:10238000012000FA02F2603341F823200C37BD46E9
:102390005DF8047B704700BF00E100E080B483B0CB
:1023A00000AF03463960FB7197F90730002B0ADB59
:1023B0000D4997F907303A68D2B29200D2B20B4475
:1023C00083F800230AE00949FB7903F00F03043B7B
:1023D0003A68D2B29200D2B20B441A760C37BD469C
:1023E0005DF8047B704700BF00E100E000ED00E015
:1023F00080B489B000AFF860B9607A60FB6803F020
:102400000703FB61FB69C3F10703062B28BF062303
:10241000BB61FB690633062B02D9FB69013B00E077
:1024200000237B61BB69012202FA03F35A1EBB68D9
:102430001A407B699A407B69012101FA03F3591E16
:102440007B680B40134318462437BD465DF8047B78
:10245000704700BF90B583B000AF78607B68596863
:102460007B6893F821207B680833084611461A469A
:10247000FDF7ACFF7B6819687B68DA7F7B681433F3
:10248000084611461A46FEF793FF7B681A687B6878
:1024900093F82030104619460122FEF7AFFF7B6803
:1024A0001C7FFFF733FF01467B685B7F1A467B6822
:1024B0009B7F084611461A46FFF79AFF024663B211
:1024C00018461146FFF76AFF7B6893F82230002B0D
:1024D0000BD07B681B7F5BB21846FFF741FF7B6820
:1024E0001B7F5BB21846FFF71FFF002318460C370F
:1024F000BD4690BD80B400AF044BDB6803F4E063DD
:102500001B0A1846BD465DF8047B704700ED00E0ED
:1025100080B483B000AF0346FB7197F90730002BFE
:102520000BDB084997F907305B09FA7902F01F02C3
:10253000012000FA02F241F823200C37BD465DF875
:10254000047B704700E100E080B483B000AF034635
:102550003960FB7197F90730002B0ADB0D4997F9B9
:1025600007303A68D2B29200D2B20B4483F800230B
:102570000AE00949FB7903F00F03043B3A68D2B241
:102580009200D2B20B441A760C37BD465DF8047B3C
:10259000704700BF00E100E000ED00E080B489B0CA
:1025A00000AFF860B9607A60FB6803F00703FB6175
:1025B000FB69C3F10703062B28BF0623BB61FB6938
:1025C0000633062B02D9FB69013B00E000237B6147
:1025D000BB69012202FA03F35A1EBB681A407B69E9
:1025E0009A407B69012101FA03F3591E7B680B4075
:1025F000134318462437BD465DF8047B704700BF7F
:1026000080B582B000AF78607B681B785BB21846FB
:10261000FFF77EFF0837BD4680BD00BF90B583B091
:1026200000AF78607B681C78FFF764FF01467B6829
:102630005B781A467B689B78084611461A46FFF776
:10264000ADFF024663B218461146FFF77DFF7B6877
:10265000DB78002B02D07868FFF7D2FF0023184602
:102660000C37BD4690BD00BF80B483B000AF78602A
:102670007B684FF48072DA600C37BD465DF8047BEE
:10268000704700BF80B582B000AF78607B685B7B2D
:1026900083F00103DBB2002B0FD07B689A687B6864
:1026A0001B7B10461946FEF705FD7B689B681846A4
:1026B000FFF7DAFF7B6801225A73002318460837B8
:1026C000BD4680BD80B483B000AF78607B684FF4B6
:1026D0008072DA600C37BD465DF8047B704700BF3E
:1026E00080B582B000AF78607B685B7B83F00103CC
:1026F000DBB2002B0FD07B689A687B681B7B10468F
:102700001946FEF7DBFB7B689B681846FFF7DAFF8C
:102710007B6801225A73002318460837BD4680BDE6
:1027200080B483B000AF786039607B68D3F88020D4
:102730003B681033194601238B401A437B68C3F86A
:1027400080200C37BD465DF8047B704780B584B0AF
:1027500000AF78607B681B7E022B49D17B685A6989
:102760007B681B6910461946FEF7E8FE0023FB60F4
:102770002FE07B68FA6853F8223019687B68FA68A2
:1027800053F822305B6808461946FEF733FF7B6832
:10279000FA6853F822301B6818460321FEF7BAFF87
:1027A0007B68FA6853F822301B7A83F00103DBB2AE
:1027B000002B05D07B685B691846F968FFF7B0FF0E
:1027C0007B68FA6853F8223000225A72FB680133A2
:1027D000FB60FB68032BCCD97B685B7E002B04D0AD
:1027E0007B685B691846FEF7D3FE7B6800221A7689
:1027F0007B681B7E18461037BD4680BD80B485B00F
:1028000000AF78607B6803F00703FB600C4BDB686C
:10281000BB60BA684FF6FF031340BB60FB681A0247
:10282000BB68134343F0BF6343F40033BB60044A07
:10283000BB68D3601437BD465DF8047B704700BFAA
:1028400000ED00E080B582B000AF0120FFF7D6FFB9
:1028500072B6214B214A9A60BFF34F8F62B61E4A6F
:102860001D4BD3F8883043F47003C2F888301C4BFA
:1028700003F5805314331B687B607B6823F00F03E0
:102880007B607B6843F003037B60154B03F580534B
:1028900014337A681A60104A0F4B5B6923F01003F7
:1028A00053610D4A0C4B5B6923F0080353610A4ADC
:1028B000094B5B6A23F480335362074A064B5B6A19
:1028C00023F400335362044A034B5B6A23F48023EE
:1028D00053620837BD4680BD00ED00E000000008EF
:1028E0000010005880B48FB000AFF860B9607A6013
:1028F0003B60FB685B687B63FB689B687B61FB6894
:102900001B883B61FB685A683B6903F18043013BCC
:102910009B0013443B633B68BB6134E03B6B1A1D77
:102920003A63BA68111DB96012681A604FF000036B
:102930007B627B6BFB627B69BB623B693B6214E041
:10294000FB6A1A1DFA6293ED007ABB6A1A1DBA621D
:10295000D3ED007A67EE277A97ED097A77EE277A3A
:10296000C7ED097A3B6A013B3B623B6A002BE7D12A
:102970007B681A1D7A607A6A1A607B6B04337B630A
:10298000BB69013BBB61BB69002BC7D1FB685B68BE
:102990003B633B69013BFB610AE03B6B1A1D3A63F9
:1029A0007A6B111D796312681A60FB69013BFB6148
:1029B000FB69002BF1D13C37BD465DF8047B7047C5
:1029C00080B584B000AFF8607A603B600B467B81D5
:1029D000FB687A891A80FB687A689A607A89BB6991
:1029E000134403F18043013B9B00386800211A46E1
:1029F00001F07DFEFB683A685A601037BD4680BD25
:102A000080B48BB000AF7860D7ED017A9FED397A52
:102A100067EE877AC7ED067AD7ED067AFDEEE77A9C
:102A200017EE903A3B62D7ED067AF5EEC07AF1EEFA
:102A300010FA02D53B6A013B3B623B6A07EE903AD3
:102A4000F8EEE77A97ED067A77EE677AC7ED067AC1
:102A5000D7ED067A9FED287A67EE877AC7ED077A79
:102A6000D7ED077AFCEEE77AC7ED007A3B88FB8466
:102A7000FB8CB3F5007F09D30023FB84D7ED077AE5
:102A80009FED1D7A77EEC77AC7ED077AFB8C07EECC
:102A9000903AF8EE677A97ED077A77EE677AC7EDA6
:102AA000057AFB8C154A9B0013441B683B61FB8C29
:102AB0000133124A9B0013441B68FB60B7EE007A97
:102AC000D7ED057A37EE677AD7ED047A27EE277AC5
:102AD000D7ED056AD7ED037A66EEA77A77EE277A07
:102AE000C7ED027ABB6818462C37BD465DF8047BFB
:102AF000704700BF83F9223E00000044DC5000080C
:102B000080B485B000AF78600023FB737B6801223E
:102B10001A70FB7B18461437BD465DF8047B70477E
:102B200080B400AF024B1846BD465DF8047B704789
:102B3000001BB700B0B586B000AF134B3C1D1D465F
:102B40000FCD0FC42B6823603B1D1846FDF72CFDED
:102B50000020FDF741FE0020FDF7F6FD0420FDF703
:102B6000C7FEFDF711FF01202021FDF71DFF00200A
:102B7000FDF7FEFD0120FDF7E3FE0120FDF7CCFE91
:102B80001837BD46B0BD00BFE058000880B400AFA4
:102B9000044BDB6803F4E0631B0A1846BD465DF88E
:102BA000047B704700ED00E080B483B000AF0346C3
:102BB000FB7197F90730002B0BDB084997F90730B9
:102BC0005B09FA7902F01F02012000FA02F241F8D3
:102BD00023200C37BD465DF8047B704700E100E020
:102BE00080B483B000AF03463960FB7197F90730BA
:102BF000002B0ADB0D4997F907303A68D2B29200F0
:102C0000D2B20B4483F800230AE00949FB7903F0B0
:102C10000F03043B3A68D2B29200D2B20B441A7648
:102C20000C37BD465DF8047B704700BF00E100E053
:102C300000ED00E080B489B000AFF860B9607A6060
:102C4000FB6803F00703FB61FB69C3F10703062B75
:102C500028BF0623BB61FB690633062B02D9FB693B
:102C6000013B00E000237B61BB69012202FA03F310
:102C70005A1EBB681A407B699A407B69012101FAA0
:102C800003F3591E7B680B40134318462437BD4697
:102C90005DF8047B704700BF80B483B000AF7860FC
:102CA0000B46FB707B68D3F8043123F003027B688A
:102CB000C3F804217B68D3F80421FB781A437B68AE
:102CC000C3F804210C37BD465DF8047B704700BF94
:102CD00080B483B000AF78607B68D3F8043143F4EC
:102CE00080627B68C3F8042100BF7B68D3F8083199
:102CF00003F02003002BF8D00C37BD465DF8047BB1
:102D0000704700BF80B483B000AF786039603A6824
:102D10007B68C3F810210C37BD465DF8047B704713
:102D200080B582B000AF0346FB71FB790E4A52F8C2
:102D300033301846FF21602201F0D9FCFB790A4AA2
:102D4000DB0013445B681846FF21602201F0CFFCD2
:102D5000FB795B01054A134418460021202201F04B
:102D6000C6FC0837BD4680BD8880002018020020C0
:102D700090B585B000AF78607B685B7E022B57D141
:102D80007B689B681846FFF7E1FC0346FB737B6892
:102D9000DA687B68DB7E1C467B6810461968002277
:102DA0002346FEF75BFC7B68DA687B685B6810464D
:102DB0001946FEF737FD7B68DA687B681B7C104696
:102DC0001946FFF769FF7B689B7E184600F000F903
:102DD0007B685B691B7B002B27D07B685B691B686A
:102DE000DCB2FFF7D3FE01467B685B695A687B68FB
:102DF0005B699B68084611461A46FFF71BFF0246AF
:102E000063B218461146FFF7EBFE7B68DA687B6811
:102E10001B7E10461946FEF753FD7B685B691B68F5
:102E2000DBB25BB21846FFF7BFFE7B68FA7B5A76CF
:102E30007B685B7E18461437BD4690BD80B586B072
:102E400000AF786039607B689B7E1A46334B53F83D
:102E500032303B613B685B791A4613465B00134492
:102E60009B001A463B6913443B61386939680C2260
:102E700001F032FC7B689B7E284ADB0013445B68D0
:102E80003B613B681B791A4613465B0013449B0069
:102E90001A463B6913443B61386939680C2201F0DA
:102EA0001BFC3B681B68FB607B689B7E5B011C4ACC
:102EB0001344BB600123BB75FB68002B2BD07B68E0
:102EC0005B7FFB7510E097F917309B00BA681344DD
:102ED0001A68FB689A4202D10023BB7508E0FB7DAB
:102EE000DBB2013BDBB2FB7597F91730002BEADA56
:102EF000BB7D002B0FD07B689B7E18467B685B7F79
:102F00005A1CD1B27A6851771A460549C300134456
:102F1000FA6841F823201837BD4680BD888000201C
:102F20001802002080B586B000AF78607B689B7E79
:102F3000264ADB0013445B683B617B68DB6818460C
:102F4000FFF7C6FE00237B6139E07A6913465B0018
:102F500013449B001A463B691344FB60FB685B7992
:102F6000FF2B29D0FB685B7903F01F03DAB23B7AB1
:102F700062F304033B72FB68DB7903F00103DAB20E
:102F80003B7A62F345133B72FB685B7A03F0010303
:102F9000DAB23B7A62F386133B72FB689B7903F0EB
:102FA0000103DAB23B7A62F3C7133B727B68DB68DA
:102FB0001846B968FFF7A6FE7B6901337B617B6920
:102FC000072BC2D91837BD4680BD00BF88800020BE
:102FD00080B582B000AF0346FB71064B064A1A600B
:102FE000044B064A5A60FB791846FFF799FE0837EA
:102FF000BD4680BD88800020A88000200881002078
:1030000080B483B000AF78607B68D3F8843043F03D
:1030100080727B68C3F884200C37BD465DF8047B62
:10302000704700BF80B483B000AF78607B68D3F88E
:10303000843023F080727B68C3F884200C37BD464F
:103040005DF8047B704700BF80B483B000AF786048
:103050007B68D3F8843003F080731B0E002B14BF01
:1030600001230023DBB218460C37BD465DF8047B14
:10307000704700BF80B485B000AFF860B9607A6077
:103080007B681968FB68BA68A03243F822101437CD
:10309000BD465DF8047B704780B582B000AF7860B4
:1030A0000B46FB707B68D9687B685A68FB789B008D
:1030B00013441B6808461946FFF7C0FE0837BD4693
:1030C00080BD00BF80B584B000AF78607B68DB68EE
:1030D0001846FFF74DFE0346FB73FB7B184610377F
:1030E000BD4680BD80B584B000AF78600023BB735F
:1030F0000023FB730120FDF7EFFA034683F0010381
:10310000DBB21A46BB7B1343002B14BF0123002301
:10311000BB73BB7B002B0AD07B685B7D1A46064BDA
:1031200053F822301846FFF78FFF0346FB73FB7BF3
:1031300018461037BD4680BD1059000880B582B0D2
:1031400000AF78600B46FB70FB7883F00103DBB2C5
:10315000002B08D07B685B7D1A46044B53F8223065
:103160001846FFF75FFF0837BD4680BD10590008BD
:1031700080B582B000AF78607B68DB681846FFF7E7
:10318000D1FE0837BD4680BD80B582B000AF0323B5
:103190007B600AE0194A7B6852F823301846002108
:1031A000FEF7B8FA7B68013B7B607B68002BF1DAA5
:1031B00003237B6012E0114A7B6852F823207B686E
:1031C000104600211A46FEF7C1FA0D4A7B681046E8
:1031D0001946FEF7F3FA7B68013B7B607B68002BA6
:1031E000E9DC074B1846FEF7D3FA054B18460321D6
:1031F000FEF790FA0837BD4680BD00BF10590008A1
:103200000044004080B582B000AF78607B685B7D91
:103210001A46044B53F822301846FFF7F1FE0837E0
:10322000BD4680BD1059000880B483B000AF7860FF
:103230000C37BD465DF8047B704700BF80B582B097
:1032400000AF78607B681B7A1A46094B53F822203E
:103250007B681B689B78C3F30303DBB219467B686A
:103260005B6810461A46FFF705FF0837BD4680BD6C
:103270001059000880B584B000AF78600023BB739C
:103280007B681B691B78022B53D17868FFF72AFFF4
:103290000346BB737868FFF715FF03467B73BB7B60
:1032A00078681946FFF74AFFFFF76EFF7B68DB7D02
:1032B0003B730023FB731BE07B681A68FB7B9B005E
:1032C00013441B68BB60BB681B7A1A461C4B53F83F
:1032D0002220BB685B7A1946BB681B6810461A46F9
:1032E000FEF70AFBB868FFF7A9FFFB7B0133FB730E
:1032F000FA7B3B7B9A42DFD30023FB7307E0FB7B27
:1033000078681946FFF7C8FEFB7B0133FB737B68C7
:103310009B7DFA7B9A42F2D37868FFF785FF786845
:10332000FFF726FF7868FFF76DFF7B681B697A7BE4
:103330001A707B681B691B7818461037BD4680BD24
:103340001059000880B582B000AF0023FB712148FE
:10335000FFF7D6FB0346FB71FB79002B04D11E4817
:10336000FFF75CF90346FB71FB79002B04D11B4886
:10337000FFF754F90346FB71FB79002B04D1184881
:10338000FFF768F80346FB71FB79002B04D1154861
:10339000FEF726FD0346FB71FB79002B04D1124892
:1033A000FEF77CFB0346FB71FB79002B04D10F4831
:1033B000FEF774FB0346FB71FB79002B04D10C482C
:1033C000FFF758FF0346FB71FB7918460837BD46E7
:1033D00080BD00BF140200206C500008705000082F
:1033E000485000085C000020000000202800002059
:1033F000605A00080000000098B52DED028B00AF68
:103400003B4B1C683B4BD3ED007A9FED3B7A67EE5C
:10341000877AB3EE047A67EE877A17EE900AFFF7A1
:10342000EFFA07EE100ADFED357A27EE278A314BE7
:10343000D3ED007A9FED307A67EE877A9FED307A90
:1034400067EE877A17EE900AFFF7DAFA07EE100AAE
:10345000F2EE087A67EE277A78EE277A294AA300F7
:103460001344C3ED007A224B1968274BA3FB0123B9
:103470001A0913461B019B1A5B00CA1A002A08D1BD
:103480001B4B00221A6021481E49214A1E23FFF7C8
:1034900029FA174B1B681B4A9B0013441B681D4AE3
:1034A0001360144B1B68184601F04CF802460B469B
:1034B000104619460CA3D3E9002300F0E5FE0246AE
:1034C0000B461046194601F091F80246094B1A6066
:1034D000074B1B680133064A136000F0F9F8BD463C
:1034E000BDEC028B98BD00BF2D431CEBE2360A3FBA
:1034F0009C02002098020020DB0FC9400000C84257
:1035000000006144F886002089888888D08A0020DD
:10351000D8860020E486002080B584B002AFFFF793
:1035200011FF0346FB71FB79002B00D0FEE70A4830
:10353000FEF7A2FD1E23009308485B21084A094BB1
:10354000FFF73EFA084B1B68084AA2FB0323DB097E
:10355000184600F00DF8FEE75C000020D08A00203D
:103560007C5A0008F8840020C0FF0020D34D621070
:1035700080B483B000AF7860374B00221A60374BBD
:1035800000221A60364B00221A60364B00221A6065
:10359000354B00221A60354B00221A60344B002252
:1035A0001A60344B00221A60334B00221A70334BDE
:1035B00000221A70324B01221A70324B00221A601C
:1035C000314B00221A60314B00221A60304B00222E
:1035D0001A60304B00221A602F4B00221A602F4BCA
:1035E00000221A602A4B1B682D4A13602D4B4FF4A2
:1035F0007A721A602C4B01221A602C4B1B889BB2EA
:103600001A462B4B1A602B4B1B78DBB21A46284B01
:103610001B681344264A1360274B1A68244B1B6807
:103620001344234A1360254B1A68214B1B6813442B
:103630001F4A1360224B01221A80224B00221A805B
:10364000214A7B681360214B01221A600C37BD466A
:103650005DF8047B704700BFA002002058120020D4
:1036600010220020C8310020804100203851002065
:10367000F0600020A8700020608000208080002082
:10368000618000206C800020708000204C8D002024
:10369000588D00205C8D002064800020648D002007
:1036A000748000207880002068800020F6010020CF
:1036B00084800020F8010020FC010020000200208E
:1036C0007C8000207E800020508D0020608D0020B6
:1036D00080B500AF0E4B1B78032B17D801A252F810
:1036E00023F000BFF5360008FB360008013700085C
:1036F0000737000800F00EF808E000F05DF805E07C
:1037000000F01CF802E000F057F800BF80BD00BFD9
:103710006080002080B400AF064B00221A70064B78
:103720001B88002B02D1044B01221A80BD465DF894
:10373000047B7047808000207C80002080B500AF33
:10374000174B1B68002B26D1164B00221A60164B14
:103750001B88012B06D9144B1B88013B9AB2124BD4
:103760001A8018E0114B1B88002B02D10F4B01224D
:103770001A800E4B1A880C4B1A8000F0E5F800F006
:103780000BFA0B4B1B68002B05D1054B01221A606D
:10379000044B01221A60074B00221A7080BD00BF43
:1037A000648D00204C8D00207E8000207C800020D5
:1037B000708000208080002080B500AF554B1B88B2
:1037C000012B06D9534B1B88013B9AB2514B1A80EF
:1037D0009EE0514B1B88002B02D14F4B01221A80D7
:1037E0004D4B1A884B4B1A804C4B1B78032B00F225
:1037F0008B8001A252F823F00938000845380008F0
:1038000085380008CD380008454B00221A60454B2A
:1038100000221A60444B00221A60444B00221A60B6
:10382000434B00221A60434B00221A60424B1B6834
:10383000424A136000F088F800F0AEF9374B0122DD
:103840001A7065E000F080F83C4B1B68002B05D037
:103850003A4B1B68013B394A136001E000F0B8F9AC
:1038600000F09AF92F4B1B68012B0AD1324B1B68D1
:10387000C3F5797302332F4A1360284B02221A7062
:1038800046E045E000F060F800F086F9294B1B683F
:10389000002B05D0274B1B68013B264A136037E0FD
:1038A000274B1B78012B06D1254B00221A701B4B8E
:1038B00000221A7006E0234B1B681D4A1360174B49
:1038C00003221A70164B01221A6021E0184B1B6864
:1038D000002B05D0164B1B68013B154A136012E004
:1038E0000F4B1B68002B0ED10E4B00221A60124B9F
:1038F0001B68124A1360094B01221A7000F024F869
:1039000000F04AF904E003E0044B00221A7000BF03
:1039100080BD00BF7E8000207C8000208080002051
:10392000648D00204C8D00206C8000207080002071
:103930006480002078800020588D00207480002052
:10394000608000205C8D002080B500AF0C4800F046
:1039500027F80C4800F024F80B4800F021F80B4839
:1039600000F01EF80A4800F01BF80A4800F018F8AA
:10397000094800F015F8094800F012F880BD00BFB2
:10398000A00200205812002010220020C831002080
:103990008041002038510020F0600020A8700020F5
:1039A00080B485B000AF78607B681B68012B40F065
:1039B000EB80784B1B6806339B007A681344FB60EE
:1039C0007B681B79062B00F2DF8001A252F823F0FE
:1039D000ED390008313A0008753A0008B93A000894
:1039E000FD3A00083D3B00087D3B00087B689B6872
:1039F000002B05D17B681B691A78FB681A7016E0EA
:103A00007B681B7B1A4601239340DBB23B727B68C9
:103A10001B691A783B7A1340DBB2002B03D0FB689A
:103A200001221A7003E0FB6800221A70ACE0ABE0E0
:103A30007B689B68002B05D17B681B691A78FB6843
:103A40001A7016E07B681B7B1A4601239340DBB299
:103A50003B727B681B691A783B7A1340DBB2002B00
:103A600003D0FB6801221A7003E0FB6800221A7081
:103A70008AE089E07B689B68002B05D17B681B6925
:103A80001A88FB681A8016E07B681B7B1A460123A4
:103A900093409BB23B817B681B691A883B8913402A
:103AA0009BB2002B03D0FB6801221A8003E0FB6865
:103AB00000221A8068E067E07B689B68002B05D1D4
:103AC0007B681B691A88FB681A8016E07B681B7B81
:103AD0001A46012393409BB23B817B681B691A887D
:103AE0003B8913409BB2002B03D0FB6801221A8054
:103AF00003E0FB6800221A8046E045E07B689B6893
:103B0000002B05D17B681B691A68FB681A6014E0FA
:103B10007B681B7B1A4601239340BB607B681B6953
:103B20001A68BB681340002B03D0FB6801221A609F
:103B300003E0FB6800221A6026E025E07B689B68B2
:103B4000002B05D17B681B691A68FB681A6014E0BA
:103B50007B681B7B1A4601239340BB607B681B6913
:103B60001A68BB681340002B03D0FB6801221A605F
:103B700003E0FB6800221A6006E005E07B681B6931
:103B80001A68FB681A6000BF1437BD465DF8047BF5
:103B9000704700BF7080002080B400AF0A4B1B68E4
:103BA0000A4A1360084B1B680133074A1360064B2F
:103BB0001B68B3F57A7F02D3034B00221A60BD461F
:103BC0005DF8047B704700BF708000206C8000208F
:103BD00080B485B000AF904B1B78013B072B2BD8EE
:103BE00001A252F823F000BF093C00080F3C000876
:103BF000153C00081B3C0008213C0008273C00083D
:103C00002D3C0008333C0008844BFB601AE0844BD9
:103C1000FB6017E0834BFB6014E0834BFB6011E01B
:103C2000824BFB600EE0824BFB600BE0814BFB6044
:103C300008E0814BFB6005E0784BFB60764B01228E
:103C40001A7000BF7D4B00221A60FB681B68012BB5
:103C500040F008837A4B1B6806339B00FA681344D4
:103C6000BB60784B1B6806339B00FA6813447B608B
:103C7000754B1B68012B40F08781FB681B79062B75
:103C800000F2F08201A252F823F000BFA93C000824
:103C9000073D0008713D0008CF3D0008733E000855
:103CA000D13E00082F3F0008FB689B68002B19D10C
:103CB000BB681A787B681B789A4223D2BB681A7853
:103CC000FB681B7D9A421DD87B681A78FB681B7DB8
:103CD0009A4217D3594B01221A605A4B1B685B4A10
:103CE000136050E1BB681B78002B0BD17B681B78FD
:103CF000002B07D0514B01221A60524B1B68534ACC
:103D0000136040E13FE1FB689B68002B1FD1BB685B
:103D10001A787B681B7852B25BB29A4227DABB688A
:103D20001A78FB681B7D52B25BB29A421FDC7B683B
:103D30001A78FB681B7D52B25BB29A4217DB3F4B8D
:103D400001221A603F4B1B68404A13601BE1BB68AD
:103D50001B78002B0BD17B681B78002B07D0374BCF
:103D600001221A60374B1B68384A13600BE10AE1E5
:103D7000FB689B68002B19D1BB681A887B681B887D
:103D80009A4223D2BB681A88FB689B8A9A421DD844
:103D90007B681A88FB689B8A9A4217D3274B0122BB
:103DA0001A60284B1B68294A1360ECE0BB681B882B
:103DB000002B0BD17B681B88002B07D01F4B0122E7
:103DC0001A60204B1B68214A1360DCE0DBE0FB68D3
:103DD0009B68002B3CD1BB681A887B681B8812B299
:103DE0001BB29A4244DABB681A88FB689B8A12B2FB
:103DF0001BB29A423CDC7B681A88FB689B8A12B231
:103E00001BB29A4234DB0D4B01221A600D4B1B682A
:103E10000E4A1360B7E000BF61800020A0020020BE
:103E20005812002010220020C831002080410020BC
:103E300038510020F0600020A87000204C8D002038
:103E40006C8000207080002068800020548D00204D
:103E5000BB681B88002B0BD17B681B88002B07D00D
:103E6000864B01221A60864B1B68864A13608AE0E3
:103E700089E0FB689B68002B19D1BB681A687B68D6
:103E80001B689A4223D2BB681A68FB685B699A4236
:103E90001DD87B681A68FB685B699A4217D3774B19
:103EA00001221A60764B1B68764A13606BE0BB6890
:103EB0001B68002B0BD17B681B68002B07D06F4B56
:103EC00001221A606E4B1B686E4A13605BE05AE079
:103ED000FB689B68002B19D1BB681A687B681B685C
:103EE0009A4223DABB681A68FB685B699A421DDC58
:103EF0007B681A68FB685B699A4217DB5F4B01229B
:103F00001A605F4B1B685F4A13603CE0BB681B682C
:103F1000002B0BD17B681B68002B07D0574B01226D
:103F20001A60574B1B68574A13602CE02BE0BB68A4
:103F300093ED007A7B68D3ED007AB4EEE77AF1EE88
:103F400010FA00D41EE0BB6893ED007AFB68D3ED55
:103F5000057AB4EEE77AF1EE10FA00D912E07B6848
:103F600093ED007AFB68D3ED057AB4EEE77AF1EED3
:103F700010FA00DA06E0414B01221A60404B1B6840
:103F8000404A136000BF6DE1FB681B79062B00F20D
:103F9000698101A252F823F0B53F000813400008E0
:103FA00089400008E740000851410008AF4100087F
:103FB0000D420008FB689B68002B19D1BB681A787A
:103FC0007B681B789A4223D9BB681A78FB681B7DF3
:103FD0009A421DD37B681A78FB681B7D9A4217D8DA
:103FE000264B01221A60264B1B68264A136039E1D2
:103FF000BB681B78002B0BD07B681B78002B07D18C
:104000001E4B01221A601E4B1B681E4A136029E1D9
:1040100028E1FB689B68002B1FD1BB681A787B687E
:104020001B7852B25BB29A4227DDBB681A78FB68F4
:104030001B7D52B25BB29A421FDB7B681A78FB6829
:104040001B7D52B25BB29A4217DC0C4B01221A6004
:104050000B4B1B680B4A136004E1BB681B78002BF9
:104060000BD07B681B78002B07D1044B01221A6010
:10407000034B1B68034A1360F4E0F3E04C8D00200F
:1040800070800020548D0020FB689B68002B19D1A4
:10409000BB681A887B681B889A4223D9BB681A8838
:1040A000FB689B8A9A421DD37B681A88FB689B8AAF
:1040B0009A4217D86E4B01221A606E4B1B686E4AEB
:1040C0001360CFE0BB681B88002B0BD07B681B887C
:1040D000002B07D1664B01221A60664B1B68664AAB
:1040E0001360BFE0BEE0FB689B68002B1FD1BB687C
:1040F0001A887B681B8812B21BB29A4227DDBB6804
:104100001A88FB689B8A12B21BB29A421FDB7B683B
:104110001A88FB689B8A12B21BB29A4217DC544B76
:1041200001221A60534B1B68534A13609AE0BB6824
:104130001B88002B0BD07B681B88002B07D14C4BB6
:1041400001221A604B4B1B684B4A13608AE089E0DE
:10415000FB689B68002B19D1BB681A687B681B68D9
:104160009A4223D9BB681A68FB685B699A421DD3DF
:104170007B681A68FB685B699A4217D83C4B01223E
:104180001A603C4B1B683C4A13606BE0BB681B68C1
:10419000002B0BD07B681B68002B07D1344B01220E
:1041A0001A60344B1B68344A13605BE05AE0FB68CA
:1041B0009B68002B19D1BB681A687B681B689A4200
:1041C00023DDBB681A68FB685B699A421DDB7B686C
:1041D0001A68FB685B699A4217DC254B01221A605A
:1041E000244B1B68244A13603CE0BB681B68002B0F
:1041F0000BD07B681B68002B07D11D4B01221A6076
:104200001C4B1B681C4A13602CE02BE0BB6893ED31
:10421000007A7B68D3ED007AB4EEE77AF1EE10FA1B
:1042200000DC1FE0BB6893ED007AFB68D3ED057AF4
:10423000B4EEE77AF1EE10FA00DA13E07B6893ED62
:10424000007AFB68D3ED057AB4EEE77AF1EE10FA66
:1042500000D907E0064B01221A60064B1B68064A8C
:10426000136000BF1437BD465DF8047B704700BF84
:104270004C8D002070800020548D002081F0004182
:1042800002E000BF83F0004330B54FEA41044FEA3B
:10429000430594EA050F08BF90EA020F1FBF54EAD6
:1042A000000C55EA020C7FEA645C7FEA655C00F072
:1042B000E2804FEA5454D4EB5555B8BF6D420CDD43
:1042C0002C4480EA020281EA030382EA000083EAC6
:1042D000010180EA020281EA0303362D88BF30BD66
:1042E00011F0004F4FEA01314FF4801C4CEA1131BC
:1042F00002D0404261EB410113F0004F4FEA03331B
:104300004CEA133302D0524263EB430394EA050FA5
:1043100000F0A780A4F10104D5F1200E0DDB02FA14
:104320000EFC22FA05F2801841F1000103FA0EF2A8
:10433000801843FA05F359410EE0A5F120050EF16E
:10434000200E012A03FA0EFC28BF4CF0020C43FA9F
:1043500005F3C01851EBE37101F0004507D54FF0AC
:10436000000EDCF1000C7EEB00006EEB0101B1F5FC
:10437000801F1BD3B1F5001F0CD349085FEA300042
:104380004FEA3C0C04F101044FEA445212F5800F4D
:1043900080F09A80BCF1004F08BF5FEA500C50F1EA
:1043A000000041EB045141EA050130BD5FEA4C0CCD
:1043B000404141EB010111F4801FA4F10104E9D156
:1043C00091F0000F04BF01460020B1FA81F308BF4D
:1043D0002033A3F10B03B3F120020CDA0C3208DD19
:1043E00002F1140CC2F10C0201FA0CF021FA02F1F4
:1043F0000CE002F11402D8BFC2F1200C01FA02F164
:1044000020FA0CFCDCBF41EA0C019040E41AA2BF88
:1044100001EB0451294330BD6FEA04041F3C1CDA50
:104420000C340EDC04F11404C4F1200220FA04F070
:1044300001FA02F340EA030021FA04F345EA03011A
:1044400030BDC4F10C04C4F1200220FA02F001FADC
:1044500004F340EA0300294630BD21FA04F029465E
:1044600030BD94F0000F83F4801306BF81F48011F7
:104470000134013D4EE77FEA645C18BF7FEA655C6A
:1044800029D094EA050F08BF90EA020F05D054EA3C
:10449000000C04BF1946104630BD91EA030F1EBF41
:1044A0000021002030BD5FEA545C05D14000494145
:1044B00028BF41F0004130BD14F580043CBF01F538
:1044C000801130BD01F0004545F0FE4141F470011E
:1044D0004FF0000030BD7FEA645C1ABF19461046F9
:1044E0007FEA655C1CBF0B46024650EA013406BFFA
:1044F00052EA033591EA030F41F4002130BD00BFB9
:1045000090F0000F04BF0021704730B54FF4806475
:1045100004F132044FF000054FF0000150E700BFF6
:1045200090F0000F04BF0021704730B54FF4806455
:1045300004F1320410F0004548BF40424FF0000142
:104540003EE700BF42004FEAE2014FEA31014FEA85
:1045500002701FBF12F07F4393F07F4F81F06051D4
:10456000704792F0000F14BF93F07F4F704730B543
:104570004FF4607401F0004521F0004120E700BFD6
:1045800050EA010208BF704730B54FF000050AE05D
:1045900050EA010208BF704730B511F0004502D55E
:1045A000404261EB41014FF4806404F132045FEA60
:1045B000915C3FF4DCAE4FF003025FEADC0C18BF05
:1045C00003325FEADC0C18BF033202EBDC02C2F1FB
:1045D000200300FA03FC20FA02F001FA03FE40EA8D
:1045E0000E0021FA02F11444C1E600BF4FEA410275
:1045F000B2F1E04324BFB3F5001CDCF1FE5C0DD941
:1046000001F0004C4FEAC0024CEA5070B2F1004F8A
:1046100040EB830008BF20F00100704711F0804F8D
:1046200021D113F13872BCBF01F00040704741F452
:1046300080114FEA5252C2F11802C2F1200C10FA56
:104640000CF320FA02F018BF40F001004FEAC1233A
:104650004FEAD32303FA0CFC40EA0C0023FA02F3DE
:104660004FEA4303CCE77FEA625307D150EA0133B4
:104670001EBF4FF0FE4040F44000704701F0004084
:1046800040F0FE4040F40000704700BF70B50E4B94
:104690000E4CE41AA41000251E46A54204D056F87C
:1046A000253098470135F8E7FDF78AF9084C094BA2
:1046B000E41AA41000251E46A54204D056F8253061
:1046C00098470135F8E770BD04020020040200207D
:1046D000040200200402002010B5431E0A44914247
:1046E00004D011F8014B03F8014FF8E710BD024464
:1046F0000346934202D003F8011BFAE7704700001B
:104700000044004000480040004C00400050004081
:104710000080024803000000008202480E000000F2
:104720000080024804000000008202480F000000E0
:104730000080024806000000008002480B000000D4
:104740009800000000000100000000009800000038
:1047500000000100000000009800000000000100BF
:1047600000000000980000000000010000000000B0
:104770009800000000000100000000009800000008
:104780000000010000000000008502480000000059
:1047900080000000000001000000000000800248CE
:1047A0000700000000000000000001000000000001
:1047B000000001000003024002000000000202406D
:1047C000010000000004024003000000000102405C
:1047D00000000000070100000100000000000000D0
:1047E0001400000001000000010000200F00000084
:1047F00000000000010000003C0202403C040240B6
:1048000000000001000000010000020101010100A0
:10481000B0040000008793030001000010110000A5
:104820000000000000000000000000000000000088
:1048300080C3C9019303000000001A0600000001B4
:104840000000000000002100430064008600A70073
:10485000C900EA000C012D014F0170019201B30162
:10486000D501F601180239025B027C029E02BF02EA
:10487000E10202032403450367038803AA03CB0371
:10488000ED030E043004510473049404B604D704F9
:10489000F9041A053B055D057E05A005C105E30584
:1048A00004062606470669068A06AC06CD06EF060C
:1048B00010073207530774079607B707D907FA0797
:1048C0001C083D085F088008A108C308E408060921
:1048D000270949096A098B09AD09CE09F009110AAE
:1048E000320A540A750A970AB80AD90AFB0A1C0B3D
:1048F0003E0B5F0B800BA20BC30BE40B060C270CCB
:10490000490C6A0C8B0CAD0CCE0CEF0C110D320D5A
:10491000530D750D960DB70DD90DFA0D1B0E3C0EEE
:104920005E0E7F0EA00EC20EE30E040F250F470F82
:10493000680F890FAB0FCC0FED0F0E103010511018
:1049400072109310B410D610F710181139115B11B2
:104950007C119D11BE11DF1100122212431264124C
:104960008512A612C712E9120A132B134C136D13EA
:104970008E13AF13D013F21313143414551476148A
:104980009714B814D914FA141B153C155D157E152F
:104990009F15C015E11502162316441665168616D6
:1049A000A716C816E9160A172B174C176D178E177E
:1049B000AF17D017F1171218331854187518951827
:1049C000B618D718F81819193A195B197B199C19D8
:1049D000BD19DE19FF19201A401A611A821AA31A8A
:1049E000C31AE41A051B261B461B671B881BA91B41
:1049F000C91BEA1B0B1C2B1C4C1C6D1C8E1CAE1CFB
:104A0000CF1CEF1C101D311D511D721D931DB31DB8
:104A1000D41DF41D151E351E561E771E971EB81E7A
:104A2000D81EF91E191F3A1F5A1F7B1F9B1FBC1F40
:104A3000DC1FFD1F1D203D205E207E209F20BF200B
:104A4000DF2000212021412161218121A221C221D9
:104A5000E22103222322432263228422A422C422AD
:104A6000E42205232523452365238623A623C62385
:104A7000E62306242624472467248724A724C72462
:104A8000E72407252725472567258725A725C72547
:104A9000E72507262726472667268726A726C7262F
:104AA000E72607272727472767278727A727C62718
:104AB000E62706282628462866288528A528C5280A
:104AC000E52804292429442964298329A329C32901
:104AD000E229022A222A412A612A802AA02AC02AFF
:104AE000DF2AFF2A1E2B3E2B5D2B7D2B9C2BBC2B04
:104AF000DB2BFB2B1A2C3A2C592C792C982CB82C0C
:104B0000D72CF62C162D352D542D742D932DB22D1A
:104B1000D22DF12D102E2F2E4F2E6E2E8D2EAC2E2F
:104B2000CC2EEB2E0A2F292F482F672F862FA62F4A
:104B3000C52FE42F03302230413060307F309E306B
:104B4000BD30DC30FB301A31393158317731963194
:104B5000B431D331F231113230324F326D328C32C6
:104B6000AB32CA32E93207332633453363338233FB
:104B7000A133BF33DE33FD331B343A34583477343A
:104B80009634B434D334F13410352E354D356B357D
:104B90008A35A835C635E5350336223640365E36C9
:104BA0007D369B36B936D736F6361437323750371E
:104BB0006F378D37AB37C937E73706382438423877
:104BC00060387E389C38BA38D838F63814393239DB
:104BD00050396E398C39AA39C839E639043A213A44
:104BE0003F3A5D3A7B3A993AB63AD43AF23A103BB8
:104BF0002D3B4B3B693B863BA43BC23BDF3BFD3B34
:104C00001B3C383C563C733C913CAE3CCC3CE93CB4
:104C1000073D243D423D5F3D7C3D9A3DB73DD53D3E
:104C2000F23D0F3E2C3E4A3E673E843EA23EBF3ED2
:104C3000DC3EF93E163F333F513F6E3F8B3FA83F6E
:104C4000C53FE23FFF3F1C40394056407340904013
:104C5000AD40CA40E740034120413D415A417741C0
:104C60009441B041CD41EA410742234240425D4276
:104C700079429642B242CF42EC4208432543414337
:104C80005E437A439743B343D043EC4308442544FF
:104C900041445D447A449644B244CF44EB440745D2
:104CA00023453F455C4578459445B045CC45E845AE
:104CB000044620463C46584674469046AC46C84694
:104CC000E44600471C47384754476F478B47A74780
:104CD000C347DE47FA47164832484D48694884487A
:104CE000A048BC48D748F3480E492A49454961497C
:104CF0007C499849B349CE49EA49054A204A3C4A89
:104D0000574A724A8E4AA94AC44ADF4AFA4A154BA0
:104D1000314B4C4B674B824B9D4BB84BD34BEE4BBF
:104D2000094C244C3F4C5A4C754C8F4CAA4CC54CEA
:104D3000E04CFB4C154D304D4B4D664D804D9B4D21
:104D4000B64DD04DEB4D054E204E3A4E554E6F4E62
:104D50008A4EA44EBF4ED94EF44E0E4F284F434FAD
:104D60005D4F774F914FAC4FC64FE04FFA4F145005
:104D70002F50495063507D509750B150CB50E55063
:104D8000FF50195133514D51665180519A51B451D0
:104D9000CE51E75101521B5235524E526852825247
:104DA0009B52B552CE52E85201531B5334534E53CB
:104DB000675381539A53B353CD53E653FF5319545A
:104DC00032544B5464547D549754B054C954E254F3
:104DD000FB5414552D5546555F5578559155AA5598
:104DE000C355DC55F4550D5626563F565856705649
:104DF0008956A256BA56D356EC5604571D57355706
:104E00004E5766577F579757B057C857E057F957CF
:104E10001158295842585A5872588A58A358BB58A2
:104E2000D358EB5803591B5933594B5963597B5984
:104E30009359AB59C359DB59F3590A5A225A3A5A72
:104E4000525A6A5A815A995AB15AC85AE05AF75A6C
:104E50000F5B275B3E5B565B6D5B845B9C5BB35B70
:104E6000CB5BE25BF95B115C285C3F5C565C6D5C84
:104E7000855C9C5CB35CCA5CE15CF85C0F5D265DA4
:104E80003D5D545D6B5D825D995DB05DC65DDD5DD0
:104E9000F45D0B5E215E385E4F5E655E7C5E935E08
:104EA000A95EC05ED65EED5E035F1A5F305F465F4F
:104EB0005D5F735F895FA05FB65FCC5FE25FF95FA4
:104EC0000F6025603B60516067607D609360A96002
:104ED000BF60D560EB60016117612C614261586170
:104EE0006E6184619961AF61C561DA61F0610562EB
:104EF0001B62306246625B62716286629B62B16273
:104F0000C662DB62F16206631B63306346635B6308
:104F1000706385639A63AF63C463D963EE630364AC
:104F200018642D64416456646B6480649564A9645C
:104F3000BE64D364E764FC641065256539654E651D
:104F4000626577658B65A065B465C865DD65F165EB
:104F5000056619662E66426656666A667E669266C3
:104F6000A666BA66CE66E266F6660A671E673267AE
:104F7000456759676D6781679467A867BC67CF67A6
:104F8000E367F6670A681E683168446858686B68AA
:104F90007F689268A568B968CC68DF68F2680569BF
:104FA00019692C693F695269656978698B699E69DD
:104FB000B169C469D669E969FC690F6A226A346A11
:104FC000476A5A6A6C6A7F6A916AA46AB66AC96A51
:104FD000DB6AEE6A006B136B256B376B4A6B5C6B9D
:104FE0006E6B806B926BA56BB76BC96BDB6BED6BFC
:104FF000FF6B116C236C356C476C586C6A6C7C6C65
:105000008E6CA06CB16CC36CD56CE66CF86C096DE1
:105010001B6D2C6D3E6D4F6D616D726D846D956D68
:10502000A66DB76DC96DDA6DEB6DFC6D0D6E1E6E04
:10503000306E416E526E636E736E846E956EA66EA8
:10504000B76EC86ED96E000000400440008102486F
:105050000000000000000000000000000000000050
:1050600005010000053F000200020000383C00007E
:10507000393F0001000000000000000000000000B7
:105080000000000000000000000000000000000020
:105090000000000000000000000000000000000010
:1050A0000000000000000000000000000000000000
:1050B00000000000000000000000000000000000F0
:1050C00000000000000000000300000000000000DD
:1050D00000000000000000000000000000000000D0
:1050E000920E493CB10AC93C2BC3163D2EFB483DEC
:1050F000752B7B3D04A9963D80B6AF3D36BDC83DBE
:105100002FBCE13D73B2FA3D87CF093E8340163E86
:10511000B5AB223EA2102F3ECF6E3B3EC2C5473EEE
:105120000115543E135C603E7F9A6C3ECCCF783EB6
:10513000C07D823E938E883E229A8E3E32A0943E5F
:1051400086A09A3EE59AA03E128FA63ED47CAC3E45
:10515000EF63B23E2A44B83E491DBE3E15EFC33E42
:1051600053B9C93ECA7BCF3E4136D53E80E8DA3ED0
:105170004F92E03E7533E63EBBCBEB3EEA5AF13E42
:10518000CBE0F63E275DFC3EE4E7003F3D9C033F5D
:10519000824B063F9BF5083F6B9A0B3FDA390E3F77
:1051A000CDD3103F2A68133FD9F6153FC07F183F73
:1051B000C6021B3FD17F1D3FCBF61F3F9967223FA1
:1051C00025D2243F5636273F1594293F4AEB2B3FE3
:1051D000DE3B2E3FBB85303FC9C8323FF304353F2D
:1051E000233A373F4268393F3B8F3B3FF9AE3D3F63
:1051F00067C73F3F70D8413F01E2433F03E4453F6B
:1052000065DE473F12D1493FF8BB4B3F029F4D3F00
:10521000207A4F3F3D4D513F4918533F31DB543FBA
:10522000E595563F5348583F6AF2593F1A945B3F01
:10523000532D5D3F05BE5E3F2146603F97C5613FF0
:105240005A3C633F59AA643F880F663FD86B673F5B
:105250003CBF683FA7096A3F0C4B6B3F5E836C3FC6
:1052600093B26D3F9ED86E3F73F56F3F0809713F53
:105270005213723F4714733FDD0B743F0BFA743FB8
:10528000C6DE753F07BA763FC58B773FF853783F48
:105290009812793F9DC7793F02737A3FBE147B3FD6
:1052A000CDAC7B3F283B7C3FC9BF7C3FAC3A7D3FC8
:1052B000CCAB7D3F23137E3FB0707E3F6DC47E3FFD
:1052C000580E7F3F6D4E7F3FAB847F3F0FB17F3FD6
:1052D00097D37F3F43EC7F3F11FB7F3F0000803F30
:1052E00011FB7F3F43EC7F3F97D37F3F0FB17F3F61
:1052F000AB847F3F6D4E7F3F580E7F3F6DC47E3F36
:10530000B0707E3F23137E3FCCAB7D3FAC3A7D3FF8
:10531000C9BF7C3F283B7C3FCDAC7B3FBE147B3F6D
:1053200002737A3F9DC7793F9812793FF853783FCF
:10533000C58B773F07BA763FC6DE753F0BFA743FE1
:10534000DD0B743F4714733F5213723F0809713FDE
:1053500073F56F3F9ED86E3F93B26D3F5E836C3F97
:105360000C4B6B3FA7096A3F3CBF683FD86B673F58
:10537000880F663F59AA643F5A3C633F97C5613F17
:105380002146603F05BE5E3F532D5D3F1A945B3F53
:105390006AF2593F5348583FE595563F31DB543F39
:1053A0004918533F3D4D513F207A4F3F029F4D3F9B
:1053B000F8BB4B3F12D1493F65DE473F03E4453F11
:1053C00001E2433F70D8413F67C73F3FF9AE3D3FE1
:1053D0003B8F3B3F4268393F233A373FF304353F29
:1053E000C9C8323FBB85303FDE3B2E3F4AEB2B3FE7
:1053F0001594293F5636273F25D2243F9967223FEF
:10540000CBF61F3FD17F1D3FC6021B3FC07F183F19
:10541000D9F6153F2A68133FCDD3103FDA390E3F36
:105420006B9A0B3F9BF5083F824B063F3D9C033F29
:10543000E4E7003F275DFC3ECBE0F63EEA5AF13E52
:10544000BBCBEB3E7533E63E4F92E03E80E8DA3E62
:105450004136D53ECA7BCF3E53B9C93E15EFC33E58
:10546000491DBE3E2A44B83EEF63B23ED47CAC3EFA
:10547000128FA63EE59AA03E86A09A3E32A0943EA8
:10548000229A8E3E938E883EC07D823ECCCF783E5F
:105490007F9A6C3E135C603E0115543EC2C5473E88
:1054A000CF6E3B3EA2102F3EB5AB223E8340163E50
:1054B00087CF093E73B2FA3D2FBCE13D36BDC83DF2
:1054C00080B6AF3D04A9963D752B7B3D2EFB483D34
:1054D0002BC3163DB10AC93C920E493C00000000A6
:1054E000920E49BCB10AC9BC2BC316BD2EFB48BDE8
:1054F000752B7BBD04A996BD80B6AFBD36BDC8BDBA
:105500002FBCE1BD73B2FABD87CF09BE834016BE82
:10551000B5AB22BEA2102FBECF6E3BBEC2C547BEEA
:10552000011554BE135C60BE7F9A6CBECCCF78BEB2
:10553000C07D82BE938E88BE229A8EBE32A094BE5B
:1055400086A09ABEE59AA0BE128FA6BED47CACBE41
:10555000EF63B2BE2A44B8BE491DBEBE15EFC3BE3E
:1055600053B9C9BECA7BCFBE4136D5BE80E8DABECC
:105570004F92E0BE7533E6BEBBCBEBBEEA5AF1BE3E
:10558000CBE0F6BE275DFCBEE4E700BF3D9C03BF59
:10559000824B06BF9BF508BF6B9A0BBFDA390EBF73
:1055A000CDD310BF2A6813BFD9F615BFC07F18BF6F
:1055B000C6021BBFD17F1DBFCBF61FBF996722BF9D
:1055C00025D224BF563627BF159429BF4AEB2BBFDF
:1055D000DE3B2EBFBB8530BFC9C832BFF30435BF29
:1055E000233A37BF426839BF3B8F3BBFF9AE3DBF5F
:1055F00067C73FBF70D841BF01E243BF03E445BF67
:1056000065DE47BF12D149BFF8BB4BBF029F4DBFFC
:10561000207A4FBF3D4D51BF491853BF31DB54BFB6
:10562000E59556BF534858BF6AF259BF1A945BBFFD
:10563000532D5DBF05BE5EBF214660BF97C561BFEC
:105640005A3C63BF59AA64BF880F66BFD86B67BF57
:105650003CBF68BFA7096ABF0C4B6BBF5E836CBFC2
:1056600093B26DBF9ED86EBF73F56FBF080971BF4F
:10567000521372BF471473BFDD0B74BF0BFA74BFB4
:10568000C6DE75BF07BA76BFC58B77BFF85378BF44
:10569000981279BF9DC779BF02737ABFBE147BBFD2
:1056A000CDAC7BBF283B7CBFC9BF7CBFAC3A7DBFC4
:1056B000CCAB7DBF23137EBFB0707EBF6DC47EBFF9
:1056C000580E7FBF6D4E7FBFAB847FBF0FB17FBFD2
:1056D00097D37FBF43EC7FBF11FB7FBF000080BF2C
:1056E00011FB7FBF43EC7FBF97D37FBF0FB17FBF5D
:1056F000AB847FBF6D4E7FBF580E7FBF6DC47EBF32
:10570000B0707EBF23137EBFCCAB7DBFAC3A7DBFF4
:10571000C9BF7CBF283B7CBFCDAC7BBFBE147BBF69
:1057200002737ABF9DC779BF981279BFF85378BFCB
:10573000C58B77BF07BA76BFC6DE75BF0BFA74BFDD
:10574000DD0B74BF471473BF521372BF080971BFDA
:1057500073F56FBF9ED86EBF93B26DBF5E836CBF93
:105760000C4B6BBFA7096ABF3CBF68BFD86B67BF54
:10577000880F66BF59AA64BF5A3C63BF97C561BF13
:10578000214660BF05BE5EBF532D5DBF1A945BBF4F
:105790006AF259BF534858BFE59556BF31DB54BF35
:1057A000491853BF3D4D51BF207A4FBF029F4DBF97
:1057B000F8BB4BBF12D149BF65DE47BF03E445BF0D
:1057C00001E243BF70D841BF67C73FBFF9AE3DBFDD
:1057D0003B8F3BBF426839BF233A37BFF30435BF25
:1057E000C9C832BFBB8530BFDE3B2EBF4AEB2BBFE3
:1057F000159429BF563627BF25D224BF996722BFEB
:10580000CBF61FBFD17F1DBFC6021BBFC07F18BF15
:10581000D9F615BF2A6813BFCDD310BFDA390EBF32
:105820006B9A0BBF9BF508BF824B06BF3D9C03BF25
:10583000E4E700BF275DFCBECBE0F6BEEA5AF1BE4E
:10584000BBCBEBBE7533E6BE4F92E0BE80E8DABE5E
:105850004136D5BECA7BCFBE53B9C9BE15EFC3BE54
:10586000491DBEBE2A44B8BEEF63B2BED47CACBEF6
:10587000128FA6BEE59AA0BE86A09ABE32A094BEA4
:10588000229A8EBE938E88BEC07D82BECCCF78BE5B
:105890007F9A6CBE135C60BE011554BEC2C547BE84
:1058A000CF6E3BBEA2102FBEB5AB22BE834016BE4C
:1058B00087CF09BE73B2FABD2FBCE1BD36BDC8BDEE
:1058C00080B6AFBD04A996BD752B7BBD2EFB48BD30
:1058D0002BC316BDB10AC9BC920E49BC00000080A2
:1058E000500204010000010000000000000001005F
:1058F00001010101000000000000000000000000A4
:105900000000000000000000000000000000000097
:105910000044004000480040004C0040005000405F
:1059200000002F000000000001FF00000000000048
:10593000205900082C59000800070000000024002E
:105940000000000001FF0000000000003C590008BA
:105950004859000800050000000025000000000074
:1059600001FF0000000000005859000864590008B9
:1059700000030000000028000000000001FF0000FC
:105980000000000074590008805900080001000060
:10599000000029000000000001FF000000000000DE
:1059A000905900089C5900080000000000002600E3
:1059B0000000000001FF000000000000AC590008DA
:1059C000B85900080004000000002B00000000008F
:1059D00001FF000000000000C8590008D459000869
:1059E0000002000000002C000000000001FF000089
:1059F00000000000E4590008F0590008000600000B
:105A0000000000000007000100000000000000008E
:105A10000105000100000000000000000203000179
:105A20000000000000000000030100010000000071
:105A30000000000004000001000000000000000061
:105A40000504000100000000000000000602000143
:105A50000000000000000000070600010000000038
:105A6000D4010020B40100200000000094010020B7
:105A7000F40100200200080801000000EDC3813B92
:105A800093DEA1BA37C4F3BA1A9515BB402200BB06
:105A900094C43CBA0C51873AA5FE223BBD68373B03
:105AA000B25ACE3AD9C553BADB9A55BB42CA91BB5A
:105AB0002BEE64BB352C08BACF58533B9A04C03B3D
:105AC0000C92BD3B89A5293BFE5326BB2631EBBB7F
:105AD00071C30FBC6BE0C3BB3D68F139406CFC3B4C
